{
  "_format": "hh-sol-artifact-1",
  "contractName": "ChangePresident",
  "sourceName": "contracts/ChangePresident.sol",
  "abi": [
    {
      "anonymous": false,
      "inputs": [
        {
          "indexed": true,
          "internalType": "address",
          "name": "previousOwner",
          "type": "address"
        },
        {
          "indexed": true,
          "internalType": "address",
          "name": "newOwner",
          "type": "address"
        }
      ],
      "name": "OwnershipTransferred",
      "type": "event"
    },
    {
      "anonymous": false,
      "inputs": [
        {
          "components": [
            {
              "internalType": "address",
              "name": "addr",
              "type": "address"
            },
            {
              "internalType": "string",
              "name": "name",
              "type": "string"
            },
            {
              "internalType": "string",
              "name": "party",
              "type": "string"
            },
            {
              "internalType": "string",
              "name": "term",
              "type": "string"
            }
          ],
          "indexed": false,
          "internalType": "struct ChangePresident.PresidentInfo",
          "name": "_president",
          "type": "tuple"
        }
      ],
      "name": "ValueChanged",
      "type": "event"
    },
    {
      "inputs": [],
      "name": "owner",
      "outputs": [
        {
          "internalType": "address",
          "name": "",
          "type": "address"
        }
      ],
      "stateMutability": "view",
      "type": "function"
    },
    {
      "inputs": [],
      "name": "renounceOwnership",
      "outputs": [],
      "stateMutability": "nonpayable",
      "type": "function"
    },
    {
      "inputs": [],
      "name": "retrieve",
      "outputs": [
        {
          "components": [
            {
              "internalType": "address",
              "name": "addr",
              "type": "address"
            },
            {
              "internalType": "string",
              "name": "name",
              "type": "string"
            },
            {
              "internalType": "string",
              "name": "party",
              "type": "string"
            },
            {
              "internalType": "string",
              "name": "term",
              "type": "string"
            }
          ],
          "internalType": "struct ChangePresident.PresidentInfo",
          "name": "",
          "type": "tuple"
        }
      ],
      "stateMutability": "view",
      "type": "function"
    },
    {
      "inputs": [
        {
          "components": [
            {
              "internalType": "address",
              "name": "addr",
              "type": "address"
            },
            {
              "internalType": "string",
              "name": "name",
              "type": "string"
            },
            {
              "internalType": "string",
              "name": "party",
              "type": "string"
            },
            {
              "internalType": "string",
              "name": "term",
              "type": "string"
            }
          ],
          "internalType": "struct ChangePresident.PresidentInfo",
          "name": "_president",
          "type": "tuple"
        }
      ],
      "name": "store",
      "outputs": [],
      "stateMutability": "nonpayable",
      "type": "function"
    },
    {
      "inputs": [
        {
          "internalType": "address",
          "name": "newOwner",
          "type": "address"
        }
      ],
      "name": "transferOwnership",
      "outputs": [],
      "stateMutability": "nonpayable",
      "type": "function"
    }
  ],
  "bytecode": "0x608060405234801561001057600080fd5b5061002d61002261003260201b60201c565b61003a60201b60201c565b6100fe565b600033905090565b60008060009054906101000a900473ffffffffffffffffffffffffffffffffffffffff169050816000806101000a81548173ffffffffffffffffffffffffffffffffffffffff021916908373ffffffffffffffffffffffffffffffffffffffff1602179055508173ffffffffffffffffffffffffffffffffffffffff168173ffffffffffffffffffffffffffffffffffffffff167f8be0079c531659141344cd1fd0a4f28419497f9722a3daafe3b4186f6b6457e060405160405180910390a35050565b610fcc8061010d6000396000f3fe608060405234801561001057600080fd5b50600436106100575760003560e01c80632e64cec11461005c578063715018a61461007a5780638da5cb5b146100845780638eaee332146100a2578063f2fde38b146100be575b600080fd5b6100646100da565b60405161007191906106e8565b60405180910390f35b610082610300565b005b61008c610314565b6040516100999190610719565b60405180910390f35b6100bc60048036038101906100b79190610762565b61033d565b005b6100d860048036038101906100d391906107d7565b610391565b005b6100e261055f565b60016040518060800160405290816000820160009054906101000a900473ffffffffffffffffffffffffffffffffffffffff1673ffffffffffffffffffffffffffffffffffffffff1673ffffffffffffffffffffffffffffffffffffffff16815260200160018201805461015590610833565b80601f016020809104026020016040519081016040528092919081815260200182805461018190610833565b80156101ce5780601f106101a3576101008083540402835291602001916101ce565b820191906000526020600020905b8154815290600101906020018083116101b157829003601f168201915b505050505081526020016002820180546101e790610833565b80601f016020809104026020016040519081016040528092919081815260200182805461021390610833565b80156102605780601f1061023557610100808354040283529160200191610260565b820191906000526020600020905b81548152906001019060200180831161024357829003601f168201915b5050505050815260200160038201805461027990610833565b80601f01602080910402602001604051908101604052809291908181526020018280546102a590610833565b80156102f25780601f106102c7576101008083540402835291602001916102f2565b820191906000526020600020905b8154815290600101906020018083116102d557829003601f168201915b505050505081525050905090565b610308610415565b6103126000610493565b565b60008060009054906101000a900473ffffffffffffffffffffffffffffffffffffffff16905090565b610345610415565b80600181816103549190610cfb565b9050507f638388ab72ffcc18cc6a8a6d656ab5e51b47885bfd5d5770ba73eaa504468b9d816040516103869190610e65565b60405180910390a150565b610399610415565b600073ffffffffffffffffffffffffffffffffffffffff168173ffffffffffffffffffffffffffffffffffffffff161415610409576040517f08c379a000000000000000000000000000000000000000000000000000000000815260040161040090610f0a565b60405180910390fd5b61041281610493565b50565b61041d610557565b73ffffffffffffffffffffffffffffffffffffffff1661043b610314565b73ffffffffffffffffffffffffffffffffffffffff1614610491576040517f08c379a000000000000000000000000000000000000000000000000000000000815260040161048890610f76565b60405180910390fd5b565b60008060009054906101000a900473ffffffffffffffffffffffffffffffffffffffff169050816000806101000a81548173ffffffffffffffffffffffffffffffffffffffff021916908373ffffffffffffffffffffffffffffffffffffffff1602179055508173ffffffffffffffffffffffffffffffffffffffff168173ffffffffffffffffffffffffffffffffffffffff167f8be0079c531659141344cd1fd0a4f28419497f9722a3daafe3b4186f6b6457e060405160405180910390a35050565b600033905090565b6040518060800160405280600073ffffffffffffffffffffffffffffffffffffffff1681526020016060815260200160608152602001606081525090565b600073ffffffffffffffffffffffffffffffffffffffff82169050919050565b60006105c88261059d565b9050919050565b6105d8816105bd565b82525050565b600081519050919050565b600082825260208201905092915050565b60005b838110156106185780820151818401526020810190506105fd565b83811115610627576000848401525b50505050565b6000601f19601f8301169050919050565b6000610649826105de565b61065381856105e9565b93506106638185602086016105fa565b61066c8161062d565b840191505092915050565b600060808301600083015161068f60008601826105cf565b50602083015184820360208601526106a7828261063e565b915050604083015184820360408601526106c1828261063e565b915050606083015184820360608601526106db828261063e565b9150508091505092915050565b600060208201905081810360008301526107028184610677565b905092915050565b610713816105bd565b82525050565b600060208201905061072e600083018461070a565b92915050565b600080fd5b600080fd5b600080fd5b6000608082840312156107595761075861073e565b5b81905092915050565b60006020828403121561077857610777610734565b5b600082013567ffffffffffffffff81111561079657610795610739565b5b6107a284828501610743565b91505092915050565b6107b4816105bd565b81146107bf57600080fd5b50565b6000813590506107d1816107ab565b92915050565b6000602082840312156107ed576107ec610734565b5b60006107fb848285016107c2565b91505092915050565b7f4e487b7100000000000000000000000000000000000000000000000000000000600052602260045260246000fd5b6000600282049050600182168061084b57607f821691505b6020821081141561085f5761085e610804565b5b50919050565b60008135610872816107ab565b80915050919050565b60008160001b9050919050565b600073ffffffffffffffffffffffffffffffffffffffff6108a88461087b565b9350801983169250808416831791505092915050565b6000819050919050565b60006108e36108de6108d98461059d565b6108be565b61059d565b9050919050565b60006108f5826108c8565b9050919050565b6000610907826108ea565b9050919050565b6000819050919050565b610921826108fc565b61093461092d8261090e565b8354610888565b8255505050565b600080fd5b600080fd5b600080fd5b600080833560016020038436030381126109675761096661093b565b5b80840192508235915067ffffffffffffffff82111561098957610988610940565b5b6020830192506001820236038313156109a5576109a4610945565b5b509250929050565b600082905092915050565b7f4e487b7100000000000000000000000000000000000000000000000000000000600052604160045260246000fd5b60008190508160005260206000209050919050565b60006020601f8301049050919050565b600082821b905092915050565b600060088302610a497fffffffffffffffffffffffffffffffffffffffffffffffffffffffffffffffff82610a0c565b610a538683610a0c565b95508019841693508086168417925050509392505050565b6000819050919050565b6000610a90610a8b610a8684610a6b565b6108be565b610a6b565b9050919050565b6000819050919050565b610aaa83610a75565b610abe610ab682610a97565b848454610a19565b825550505050565b600090565b610ad3610ac6565b610ade818484610aa1565b505050565b5b81811015610b0257610af7600082610acb565b600181019050610ae4565b5050565b601f821115610b4757610b18816109e7565b610b21846109fc565b81016020851015610b30578190505b610b44610b3c856109fc565b830182610ae3565b50505b505050565b600082821c905092915050565b6000610b6a60001984600802610b4c565b1980831691505092915050565b6000610b838383610b59565b9150826002028217905092915050565b610b9d83836109ad565b67ffffffffffffffff811115610bb657610bb56109b8565b5b610bc08254610833565b610bcb828285610b06565b6000601f831160018114610bfa5760008415610be8578287013590505b610bf28582610b77565b865550610c5a565b601f198416610c08866109e7565b60005b82811015610c3057848901358255600182019150602085019450602081019050610c0b565b86831015610c4d5784890135610c49601f891682610b59565b8355505b6001600288020188555050505b50505050505050565b610c6e838383610b93565b505050565b600081016000830180610c8581610865565b9050610c918184610918565b5050506001810160208301610ca6818561094a565b610cb1818386610c63565b505050506002810160408301610cc7818561094a565b610cd2818386610c63565b505050506003810160608301610ce8818561094a565b610cf3818386610c63565b505050505050565b610d058282610c73565b5050565b6000610d1860208401846107c2565b905092915050565b600080fd5b600080fd5b600080fd5b60008083356001602003843603038112610d4c57610d4b610d2a565b5b83810192508235915060208301925067ffffffffffffffff821115610d7457610d73610d20565b5b600182023603841315610d8a57610d89610d25565b5b509250929050565b82818337600083830152505050565b6000610dad83856105e9565b9350610dba838584610d92565b610dc38361062d565b840190509392505050565b600060808301610de16000840184610d09565b610dee60008601826105cf565b50610dfc6020840184610d2f565b8583036020870152610e0f838284610da1565b92505050610e206040840184610d2f565b8583036040870152610e33838284610da1565b92505050610e446060840184610d2f565b8583036060870152610e57838284610da1565b925050508091505092915050565b60006020820190508181036000830152610e7f8184610dce565b905092915050565b600082825260208201905092915050565b7f4f776e61626c653a206e6577206f776e657220697320746865207a65726f206160008201527f6464726573730000000000000000000000000000000000000000000000000000602082015250565b6000610ef4602683610e87565b9150610eff82610e98565b604082019050919050565b60006020820190508181036000830152610f2381610ee7565b9050919050565b7f4f776e61626c653a2063616c6c6572206973206e6f7420746865206f776e6572600082015250565b6000610f60602083610e87565b9150610f6b82610f2a565b602082019050919050565b60006020820190508181036000830152610f8f81610f53565b905091905056fea26469706673582212202515cda169fbe7a5f57a16bb46a454ac3b0bdd1550392ecb7e5a2b14ad0498cf64736f6c63430008090033",
  "linkReferences": {},
  "deployedLinkReferences": {}
}